:020000040800F2
:1000000000000220D90700081F0800082108000886
:100010002308000825080008270800080000000041
:100020000000000000000000000000002908000897
:100030002B080008000000002D0800082F08000809
:100040003308000835080008370800083908000898
:100050003B0800083D0800083F0800084108000868
:100060004308000845080008470800084908000838
:100070004B0800084D0800084F0800085108000808
:1000800053080008550800085708000859080008D8
:100090005B0800085D0800085F08000861080008A8
:1000A0006308000865080008670800086908000878
:1000B0006B0800086D0800086F0800087108000848
:1000C0007308000875080008770800087908000818
:1000D0007B0800087D0800087F08000881080008E8
:1000E00083080008850800088708000889080008B8
:1000F0008B0800088D0800088F0800089108000888
:100100009308000895080008970800089908000857
:100110009B0800089D0800089F080008A108000827
:10012000A3080008A5080008A7080008A9080008F7
:10013000AB080008AD080008AF080008B1080008C7
:10014000B3080008B5080008B7080008B908000897
:10015000BB080008BD080008BF080008C108000867
:10016000C3080008C5080008C7080008C908000837
:10017000CB080008CD080008CF080008D108000807
:10018000D3080008D508000810B5054C237833B90A
:10019000044B13B10448AFF300800123237010BD5A
:1001A0007C01002000000000881C000808B5064BF8
:1001B0001BB106480649AFF300800648036813B137
:1001C000054B03B1984708BD00000000881C0008DB
:1001D000800100207C0100200000000016202EA1DC
:1001E000ABBE2D480168002901D132490160816808
:1001F000C268002900D08D46002A01D002F5807A1D
:1002000000218B460F462548254A121A00F0C4FEED
:1002100000F042FC152025A1ABBE2449002001B40A
:100220000B780131002B15D0202BF9D0222B01D0D7
:10023000272B01D11A0001E02022013902B401303C
:100240000B780131002B05D09A42F9D100224B1EC8
:100250001A70E5E76946020092006A446B469A42CA
:1002600006D9043A14681D6815601C600433F6E76B
:100270006C460725AC43A54604000D00094800283C
:1002800002D00948AFF3008000F060FE2000290092
:1002900000F082FA00F088FD000000207C010020C0
:1002A00054020020000000000000000010000020A8
:1002B000FF0000005802002080B487B000AF7860D3
:1002C000396000237B6100233B610023FB60002336
:1002D0007B6176E07B69012202FA03F33B613B68B4
:1002E0001A683B691340FB60FA683B699A4265D122
:1002F0007B681A687B695B00032101FA03F3DB4327
:100300001A407B681A607B681A683B681B7919463B
:100310007B695B0001FA03F31A437B681A603B6850
:100320001B79012B03D03B681B79022B2ED17B68F4
:100330009A687B695B00032101FA03F3DB431A40EF
:100340007B689A607B689A683B685B7919467B6931
:100350005B0001FA03F31A437B689A607B685A6872
:100360007B699BB2012101FA03F3DB431A407B68EE
:100370005A607B685A683B689B7919467B699BB2D7
:1003800001FA03F39BB21A437B685A607B68DA6810
:100390007B699BB25B00032101FA03F3DB431A4044
:1003A0007B68DA607B68DA683B68DB7919467B69D1
:1003B0005B0001FA03F31A437B68DA607B6901335F
:1003C0007B617B690F2B85D91C37BD465DF8047BAB
:1003D000704700BF80B485B000AF786013460A460E
:1003E0007A807B700023FB600023BB607A787B8877
:1003F00003F007039B0002FA03F3FB607B88DB0832
:100400009BB21A467B88DB089BB219467B68083191
:1004100053F821107B8803F007039B000F2000FA9C
:1004200003F3DB4319407B68083243F822107B88D2
:10043000DB089BB21A467B68083253F82220FB681F
:100440001343BB607B88DB089BB21A467B6808328B
:10045000B96843F822101437BD465DF8047B704735
:1004600080B483B000AF78600B46FB70FB78002B44
:1004700006D0094B084A116B7A680A431A6306E0F2
:10048000054B054A116B7A68D2430A401A630C3750
:10049000BD465DF8047B70470038024080B483B0ED
:1004A00000AF78600B46FB70FB78002B06D0094B41
:1004B000084A516C7A680A435A6406E0054B054ABB
:1004C000516C7A68D2430A405A640C37BD465DF8D5
:1004D000047B70470038024080B485B000AF78607C
:1004E00039600023FB817B681B88FB817A68284B7D
:1004F0009A4213D07A68274B9A420FD07B68B3F1A7
:10050000804F0BD07A68244B9A4207D07A68234BED
:100510009A4203D07A68224B9A4208D1FB8923F091
:100520007003FB813B685A88FB891343FB817A681F
:100530001C4B9A420CD07A681B4B9A4208D0FB891C
:1005400023F44073FB813B681A89FB891343FB81C9
:100550007B68FA891A803B685A687B68DA623B6874
:100560001A887B681A857A68094B9A4203D07A68A0
:10057000084B9A4204D13B689B7A1A467B681A86DC
:100580007B6801229A821437BD465DF8047B704770
:100590000000014000040140000400400008004049
:1005A000000C0040001000400014004080B483B0F4
:1005B00000AF786039607B683A68DA620C37BD4614
:1005C0005DF8047B704700BF80B483B000AF7860F3
:1005D0007B685B6A18460C37BD465DF8047B704744
:1005E00080B483B000AF78600B46FB70FB78002BC3
:1005F00008D07B681B889BB243F001039AB27B68EA
:100600001A8007E07B681B889BB223F001039AB233
:100610007B681A800C37BD465DF8047B704700BFCD
:1006200080B483B000AF786013460A467A807B704E
:100630007B78002B08D07B689B899AB27B88134318
:100640009AB27B689A8109E07B689B899AB27B8821
:10065000DB439BB213409AB27B689A810C37BD464C
:100660005DF8047B704700BF80B487B000AFF860CE
:1006700079813A81FB800023FB820023BB82002327
:100680007B82FB681B89FB82FB681B8BBB82FB6840
:100690001B8C7B82FB8A23F00703FB82FA8A7B890F
:1006A0001343FB82BB8A23F4407323F00303BB8212
:1006B000BB8A43F4807343F00103BB827B8A23F03F
:1006C00022037B82FB881B019AB23B8913439AB2B7
:1006D0007B8A13437B82FB68FA8A1A81FB68BA8A99
:1006E0001A83FB687A8A1A841C37BD465DF8047B3E
:1006F000704700BF80B586B000AF01200121FFF731
:10070000CDFE0023BB810023FB8140F61F533B61DC
:100710000023BB820023BB7507F10C031C4819465C
:10072000FFF7DAFE1A480121FFF75AFF10200121D6
:10073000FFF796FE4FF420637B6002233B72002399
:10074000BB7203237B720023FB723B1D11481946C9
:10075000FFF7B2FD0F4809210122FFF73BFE0D48CC
:100760000B210122FFF736FE094803210022002356
:10077000FFF77AFF06484FF6FF71FFF717FF0448AF
:1007800001210122FFF74CFF1837BD4680BD00BF95
:10079000000001400010024080B582B000AFFFF7BA
:1007A000A9FF0A4B7B6000BF7B685A1E7A60002B52
:1007B000FAD10748FFF708FF0246054B5B6A054878
:1007C00011461A4600F044FCEBE700BFA08601008A
:1007D00000000140D01B00080649074A074B9A4217
:1007E000BEBF51F8040B42F8040BF8E704488047F9
:1007F00004480047941C0008000000207C010020F1
:10080000E1080008DD0100083349344A002301E013
:1008100041F8043B9142FBD3FFF7BEFFFEE7FEE742
:10082000FEE7FEE7FEE7FEE7FEE7FEE7FEE7FEE7A0
:10083000FEE7FEE7FEE7FEE7FEE7FEE7FEE7FEE790
:10084000FEE7FEE7FEE7FEE7FEE7FEE7FEE7FEE780
:10085000FEE7FEE7FEE7FEE7FEE7FEE7FEE7FEE770
:10086000FEE7FEE7FEE7FEE7FEE7FEE7FEE7FEE760
:10087000FEE7FEE7FEE7FEE7FEE7FEE7FEE7FEE750
:10088000FEE7FEE7FEE7FEE7FEE7FEE7FEE7FEE740
:10089000FEE7FEE7FEE7FEE7FEE7FEE7FEE7FEE730
:1008A000FEE7FEE7FEE7FEE7FEE7FEE7FEE7FEE720
:1008B000FEE7FEE7FEE7FEE7FEE7FEE7FEE7FEE710
:1008C000FEE7FEE7FEE7FEE7FEE7FEE7FEE7FEE700
:1008D000FEE7FEE7FEE700007C0100205402002056
:1008E00080B500AF154B154AD2F8882042F470024B
:1008F000C3F88820124B124A126842F001021A60B3
:100900000F4B00229A600E4A0D4B1B6823F0847334
:1009100023F4803313600A4B0A4A5A60084B084A92
:10092000126822F480221A60054B0022DA6000F07F
:100930000BF8024B4FF000629A6080BD00ED00E0C2
:10094000003802401030002480B483B000AF002390
:100950007B6000233B60354B344A126842F480329E
:100960001A60324B1B6803F400333B607B68013331
:100970007B603B68002B03D17B68B3F5C06FF0D17F
:100980002A4B1B6803F40033002B02D001233B6089
:1009900001E000233B603B68012B42D1234B234AFB
:1009A000126C42F080521A64214B214A126842F4C0
:1009B00080421A601D4B1D4A92689A601B4B1B4A6D
:1009C000926842F400429A60184B184A926842F4C6
:1009D000A0529A60154B174A5A60144B134A12687A
:1009E00042F080721A6000BF104B1B6803F0007366
:1009F000002BF9D0104B40F205721A600B4B0B4ADA
:100A0000926822F003029A60084B084A926842F00A
:100A100002029A6000BF054B9B6803F00C03082B91
:100A2000F9D10C37BD465DF8047B704700380240B1
:100A30000070004019544007003C02400A4B10B5BA
:100A40000446186818B183690BB900F015FA132C25
:100A500007D8064850F83430013302D000EBC40008
:100A600010BD002010BD00BF70010020A8010020B3
:100A7000F8B5044600F092F90027054613263046E3
:100A80003946ABBE06462E602046F8BD431C01D158
:100A9000FFF7EEBF704700002DE9FF47204F019799
:100AA0000326002303960124029301AD2046294624
:100AB000ABBE8046DFF87490019704230396C9F813
:100AC0000080029320462946ABBE8246DFF8608054
:100AD000019708230396C8F800A0029320462946F0
:100AE000ABBE04460F4940460C60013404BF0368A6
:100AF0000B604C4600220C4B4FF0FF35D5500832AE
:100B0000A02AF8D12268006809681A6000225A6099
:100B10009860DA6019615A6104B0BDE8F08700BFDF
:100B2000E81B0008A4010020A80100209C0100206F
:100B30009801002030B585B001AD0190029103927B
:100B4000062420462946ABBE04462046FFF79EFFFA
:100B500005B030BD70B50E461546FFF76FFF044671
:100B600030B900F01BF9092303604FF0FF3070BD6E
:100B7000006831462A46FFF7DDFF431C03D0636857
:100B8000281A0344636070BDF7B50C461646FFF79C
:100B900055FF054618B900F001F9092304E0022EBB
:100BA00004D900F0FBF81623036017E0012E03D1EF
:100BB0004368E41815D5F4E7022E12D102AE03689B
:100BC00046F8083D0C2738463146ABBE064630464F
:100BD000FFF75CFF431C18BF241802D14FF0FF3011
:100BE0000FE02B686F468DE818000A26304639461C
:100BF000ABBE06463046FFF749FF0028EEDB6C60CF
:100C0000204603B0F0BDFFF7BFBF30B585B001ADE2
:100C1000019002910392052420462946ABBE04466A
:100C20002046FFF733FF05B030BD70B50E461546C0
:100C3000FFF704FF044620B900F0B0F80923036071
:100C400011E0006831462A46FFF7DFFF031E0ADB8A
:100C50006268E81A02449D42626006D10020BDE845
:100C60007040FFF705BF4FF0FF3070BD37B502ACE5
:100C7000022544F8040D28462146ABBE0446204612
:100C8000FFF704FF03B030BD38B50546FFF7D6FEC9
:100C9000044630B900F082F8092303604FF0FF30BA
:100CA00038BD013D012D09D8084B9A681B699A424D
:100CB00004D14FF0FF330360002038BD2068FFF7F8
:100CC000D5FF10B94FF0FF33236038BDA8010020D5
:100CD00008B50A4B1A680AB9094A1A601B686A46BD
:100CE0001844904206D900F059F80C2303604FF0E5
:100CF000FF3008BD014A1060184608BDA001002061
:100D00005802002070B50C46FFF798FE054630B932
:100D100000F044F8092303604FF0FF3070BD6368B2
:100D200043F4005363604FF48063E3620C26304663
:100D30002946ABBE05462846FFF7A8FE431C1CBF4C
:100D40002061002070BD38B53C2205460C4608469F
:100D5000002100F021F928462146BDE83840FFF780
:100D6000D1BF70B5FFF76AFE0925044618B900F037
:100D700015F805600FE028462146ABBE0446012C5D
:100D800009D000F00BF80024054613263046214612
:100D9000ABBE06462E60204670BD0000014B1868B1
:100DA000704700BF7001002008B5074B044613B11F
:100DB0000021AFF30080054B1868836A03B19847A0
:100DC000204600F0E5FE00BF00000000501C0008B7
:100DD000F8B5074600F1480494B1A5686668013E7D
:100DE0000CD4AB89012B07D9B5F90E30013303D0F0
:100DF0003846294600F0BAFD6835F0E72468EBE78D
:100E0000F8BD0000002310B5044603604360836012
:100E100081814366C28103614361836119465C300D
:100E2000082200F0B9F8054B6362054BA362054B3D
:100E3000E362054B2462236310BD00BFA1100008CC
:100E4000C3100008FB1000081F11000870B54B1EEE
:100E500068255D430E4605F1740100F0A5F80446CF
:100E600040B1002180E842000C30A06005F168022A
:100E700000F092F8204670BD836910B5044633BB7C
:100E80008364C3640365124B124A1B6882629842F2
:100E900004BF0123836100F01FF86060204600F06A
:100EA0001BF8A060204600F017F80421E060002243
:100EB0006068FFF7A7FFA06809210122FFF7A2FFE2
:100EC000E06812210222FFF79DFF0123A36110BDFC
:100ED000501C0008D10D0008F8B51B4B1E68B36903
:100EE000074613B93046FFF7C7FF4836B468736842
:100EF000013B04D4B4F90C5075B16834F8E7336899
:100F00002BB938460421FFF7A1FF306008B13668DD
:100F1000ECE70C233B60F8BD4FF6FF73E381012340
:100F2000A38165662560A560656025616561A56131
:100F300004F15C002946082200F02EF86563A563E1
:100F4000A564E5642046F8BD501C000870B50E4B42
:100F50000E4DED1AAD1000241E46AC4204D056F8DA
:100F6000242090470134F8E700F026FE084D094B95
:100F7000ED1AAD1000241E46AC4204D056F82420D1
:100F800090470134F8E770BD74010020740100201F
:100F9000780100207401002002440346934202D0ED
:100FA00003F8011BFAE7704770B5CD1C25F0030567
:100FB00008350C2D38BF0C25002D06463FDB8D4231
:100FC0003DD3214B1C6818462146A1B10B685B1B21
:100FD0000ED40B2B03D90B60CC18CD501FE08C42E4
:100FE00002D1626802601AE04B6863600C4616E04A
:100FF0000C464968E9E7154C23681BB9304600F0F8
:101000003FF820602946304600F03AF8431C01467C
:1010100015D0C41C24F0030484420AD1256004F1D5
:101020000B00231D20F00700C31A0BD05A42E250D8
:1010300070BD3046611A00F023F80130EED10C2368
:101040003360002070BD00BF4C0200204802002029
:101050000FB40A4B13B51C6824B1A36913B9204619
:10106000FFF70AFF05AB2046A168049A019300F040
:101070008BF802B0BDE8104004B07047700100204A
:1010800038B5064C0023054608462360FFF720FECE
:10109000431C02D1236803B12B6038BD50020020ED
:1010A00010B50C46B1F90E1000F03EFD002803DB30
:1010B000636D0344636510BDA38923F48053A3814A
:1010C00010BD2DE9F0411D468B89DB0507460C4616
:1010D000164605D5B1F90E100022022300F070FC6F
:1010E000A389B4F90E1023F48053A3813846324605
:1010F0002B46BDE8F04100F025BB10B50C46B1F918
:101100000E1000F05DFC431CA38903D123F480532F
:10111000A38110BD43F48053A381606510BDB1F974
:101120000E1000F08FBB034613F8012B002AFBD1F1
:10113000181A013870479368013B002B10B5936073
:1011400005DA9469A34208DBCBB20A2B05D01368F9
:10115000581C10601970C8B210BDBDE8104000F0F6
:101160009DBAF8B505460E461446D718BC4208D0BD
:10117000284614F8011B3246FFF7DDFF431CF5D16A
:1011800000E00020F8BD00002DE9F0439DB00D46C1
:1011900017460393064618B183690BB9FFF76CFE37
:1011A000734B9D4201D1756808E0724B9D4201D19D
:1011B000B56803E0704B9D4208BFF568AB8918071E
:1011C0000AD52B6943B10023099320238DF82930D8
:1011D00030238DF82A3038E03046294600F0C4FA32
:1011E0000028F0D04FF0FF30BFE0039A111D1268C5
:1011F0000391002A70DB0792013423782E2B7DD0D7
:101200005E4F21783846032200F03AFC30B1C71B0C
:10121000049B4020B840034304930134217858488C
:101220008DF828100622671C00F02AFC002800F028
:101230008A80544B002B7DD1039B073323F0070397
:1012400008330393099B434409933B461C4613F818
:10125000012B1AB9B4EB07090ED002E0252AF5D10B
:10126000F8E7304629463A464B46FFF77AFF013009
:1012700076D0099B4B4409932378002B70D0002330
:101280004FF0FF3204930793059206938DF8533085
:101290001A9304F101094C463B4F21783846052248
:1012A00000F0EEFB09F10109049B28B1C71B0120E6
:1012B000B84003430493EEE7D90644BF20228DF8DB
:1012C00053201A0744BF2B228DF8532022782A2A54
:1012D0008BD0079B214605E0524243F00203079260
:1012E000049389E70C4601312278303A092A03D861
:1012F0000A2000FB0323F5E707937EE763782A2B98
:101300000AD1039B1A1D1B680392002B04F10204EF
:10131000B8BF4FF0FF330BE0611C00230C460131D6
:101320002278303A092A03D80A2000FB0323F5E784
:10133000059365E703AB0093304604A92A46134B97
:10134000AFF3008007E003AB0093304604A92A46C0
:101350000E4B00F08FF8B0F1FF3F80467FF472AF84
:10136000AB895B063FF53EAF09981DB0BDE8F08341
:10137000EC1B00080C1C00082C1C00085A1C000860
:101380005E1C000800000000541C000863110008E7
:101390002DE9F84315461F468A680B69DDF8208061
:1013A0009A42A8BF13462B6091F8432006460C468C
:1013B0000AB101332B602368990602D52B680233EA
:1013C0002B60236813F006091DD094F8433022687F
:1013D000003318BF012392061FD5E1185A1C302094
:1013E00081F84300224494F8451082F843100233F8
:1013F00013E03046394604F119020123C047013099
:1014000007D009F10109E2682B68D31A9945F0DB8E
:10141000DBE74FF0FF30BDE8F8833046394604F192
:101420004302C0470130F4D023682A68E16803F022
:101430000603042B08BFC2EB01052369A2680CBF99
:1014400025EAE57500259A42C4BFC3EB0203ED18F7
:101450004FF00009A9450ADA3046394604F11A026C
:101460000123C0470130D4D009F10109F2E700207F
:10147000BDE8F8832DE9FF470E7E0C9D6E2E804659
:101480000C4691469A4601F1430000F0A58011D820
:10149000632E22D009D8002E00F0AF80582E40F0E5
:1014A000BF8081F845607B4A4FE0642E1ED0692ED4
:1014B0001CD0B5E0732E00F0A48009D86F2E2BD07D
:1014C000702E40F0AD800B6843F020030B6038E0D5
:1014D000752E21D0782E34D0A2E02B681A1D1B68FF
:1014E0002A6001F1420781F842309DE022682B68B2
:1014F00012F0800F03D01A1D2A601D6805E0510606
:10150000F9D51A1D2A60B3F90050002D39DA2D23C0
:101510006D4284F8433034E022682B6812F0800F6B
:1015200003D01A1D2A601D6804E05206F9D51A1D61
:101530002A601D88237E574A6F2B14BF0A23082375
:101540001BE07823544A84F845302368296813F057
:10155000800F01F104062E6001D00D6802E05F06E5
:10156000FBD50D88DE0744BF43F0200323601DB97F
:10157000236823F0200323601023002184F8431004
:1015800001E0444A0A236668A660002E03DB216856
:1015900021F00401216005B96EB104F14201B5FBEF
:1015A000F3F603FB16550F46555D01F80159354614
:1015B000002EF4D100E00746082B0AD12368DD078E
:1015C00007D5626823699A4203DC302307F8013C9F
:1015D000013FC01B20612CE009682B68626911F093
:1015E000800F04D0191D29601B681A6005E04906A8
:1015F000F8D5191D29601B681A800023236107464E
:1016000017E02B681A1D2A601F683846FFF78BFD0C
:1016100063682061984288BF23612369636005E0A5
:1016200004F1420784F8426001232361002384F817
:101630004330CDF800A04046214603AA4B46FFF7B1
:10164000A7FE013002D14FF0FF301FE0404649466F
:101650003A462369D0470130F5D023689B0705D46B
:10166000E068039B9842B8BF18460FE00025E26887
:10167000039BD31A9D42F3DA4046494604F119020E
:101680000123D0470130DED00135F0E704B0BDE8DA
:10169000F08700BF651C0008761C000870B50E4678
:1016A0001446054618B183690BB9FFF7E5FB224BD9
:1016B0009C4201D16C6808E0204B9C4201D1AC688F
:1016C00003E01F4B9C4208BFEC68A369A360A38999
:1016D0001A0709D523693BB123692068C01A6369D9
:1016E0009842F6B20FDB08E02846214600F03CF8AD
:1016F0000028F1D04FF0FF3070BD2846214600F0A1
:1017000035F90028F6D1A368013BA36023685A1C71
:1017100022601E7063690130984204D0A389DB0700
:1017200007D50A2E05D12846214600F01FF90028CA
:10173000E0D1304670BD00BFEC1B00080C1C000857
:101740002C1C000838B5074C0546002020600846D0
:1017500011461A46FFF769FA431C02D1236803B108
:101760002B6038BD50020020324B70B51D68064614
:101770000C4625B1AB6913B92846FFF77DFB2E4B0C
:101780009C4201D16C6808E02C4B9C4201D1AC68B2
:1017900003E02B4B9C4208BFEC68A28993B2190767
:1017A00020D4DD0605D4092342F040023360A28133
:1017B0003BE0580712D5616B41B104F144039942F3
:1017C00002D0304600F06CF900236363A38923F054
:1017D0002403A3810023636023692360A38943F06A
:1017E0000803A38123694BB9A38903F42073B3F5DC
:1017F000007F03D03046214600F0F4F8A38913F0AF
:10180000010205D00022A26062695242A26103E097
:10181000990758BF6269A26022694AB903F0800043
:1018200080B230B143F04003A3814FF0FF3070BD70
:10183000002070BD70010020EC1B00080C1C00088B
:101840002C1C000838B5064C0023054608462360CA
:10185000FFF71AFA431C02D1236803B12B6038BD8D
:10186000500200208A892DE9F041054610070C46F8
:1018700057D44B68002B02DC0B6C002B18DDE66A9A
:10188000B6B102F48052002392B22F682B600AB1E5
:10189000626D10E0216A28460123B047411C0246D0
:1018A00009D12B683BB11D2B01D0162B46D12F60DF
:1018B0000020BDE8F081A3895B0705D56368D21AD3
:1018C000636B0BB1236CD21AE66A216A28460023A7
:1018D000B047461CA28905D12B681BB11D2B01D036
:1018E000162B19D100236360D1042369236004D52A
:1018F000421C01D12B6803B96065616B2F60002920
:10190000D6D004F14403994202D0284600F0C8F82A
:1019100000206063BDE8F08142F04002A281BDE892
:10192000F0810E69002EC3D00B680E60C6EB030871
:1019300093070CBF4B6900238B6012E0A38943F02F
:101940004003A3814FF0FF30BDE8F081A76A216A10
:10195000284632464346B8470028EFDD0644C0EB30
:101960000808B8F1000FF1DCA2E7000038B50B69F8
:1019700005460C46DBB118B183690BB9FFF77CFA59
:101980000C4B9C4201D16C6808E00B4B9C4201D18E
:10199000AC6803E0094B9C4208BFEC68B4F90C301A
:1019A0002BB128462146BDE83840FFF75BBF002039
:1019B00038BD00BFEC1B00080C1C00082C1C0008E4
:1019C00038B5074C054600202060084611461A46E7
:1019D000FFF719F9431C02D1236803B12B6038BD0E
:1019E00050020020F0B58B899E0791B005460C4649
:1019F00026D4B1F90E10002909DAA38913F0800F5B
:101A00004FF0000714BF40264FF480660DE001AA96
:101A100000F09CF80028F0DB029F07F47047B7F550
:101A200000514F424F414FF4806628463146FFF740
:101A3000BBFA60B9A3899A051DD443F00203A381C0
:101A400004F14703236023610123636113E00B4B1F
:101A5000AB62A389206043F08003A38120616661AB
:101A60004FB12846B4F90E1000F082F818B1A389DE
:101A700043F00103A38111B0F0BD00BFD10D0008F8
:101A800010B5C9B202449042034606D01C788C427D
:101A900000F10100F7D1184610BD002010BD000074
:101AA00030B500293CD051F8042C0B1F1D49002AE9
:101AB000B8BF9B180A680C4612B95A600B6030BD5B
:101AC00093420DD219685818904203D15A581144C4
:101AD000426819605A60236030BD994203D80A46B3
:101AE00051680029F9D1146815199D420AD11B6863
:101AF0002344D0188842136012D10868034413604D
:101B00004B680CE002D90C23036030BD18681C1828
:101B10008C4203D10C6849682044186059605360B6
:101B200030BD00BF4C02002038B5074C05460020F0
:101B30002060084611461A46FFF70CF8431C02D1F4
:101B4000236803B12B6038BD5002002038B5074C24
:101B500000230546084611462360FFF7F4F8431CAE
:101B600002D1236803B12B6038BD00BF50020020B2
:101B700038B5064C0023054608462360FFF7F1F808
:101B8000431C02D1236803B12B6038BD50020020F2
:101B90004FF0FF3100F000B8062930B50CBF044DFE
:101BA000044D182420462946ABBE0446204630BDCD
:101BB0002300020026000200F8B500BFF8BC08BCF4
:101BC0009E467047F8B500BFF8BC08BC9E467047FB
:101BD00054494D3120436F756E746572203A256407
:101BE000202D2025640A00003A74740000000000D3
:101BF00000000000000000000000000000000000E5
:101C000000000000000000000000000000000000D4
:101C100000000000000000000000000000000000C4
:101C200000000000000000000000000000000000B4
:101C300000000000000000000000000000000000A4
:101C40000000000000000000000000004300000051
:101C500010010020232D302B2000686C4C0065669D
:101C600067454647003031323334353637383941ED
:101C70004243444546003031323334353637383903
:0C1C800061626364656600000000000003
:081C8C0050E5FF7F010000009C
:101C94000000000000000000000000000000000040
:101CA4000000000000000000000000000000000030
:101CB4000000000000000000000000000000000020
:101CC4000000000000000000000000000000000010
:101CD4000000000000000000000000000000000000
:101CE40000000000000000000000000000000000F0
:101CF40000000000000000000000000000000000E0
:101D040000000000000000000000000000000000CF
:101D140000000000000000000000000000000000BF
:101D240000000000000000000000000000000000AF
:101D3400000000000000000000000000000000009F
:101D4400000000000000000000000000000000008F
:101D5400000000000000000000000000000000007F
:101D6400000000000000000000000000000000006F
:101D7400000000000000000000000000000000005F
:101D8400000000000000000000000000000000004F
:101D9400000000000000000000000000000000003F
:101DA40000000000EC1B00080C1C00082C1C0008A0
:101DB400000000000000000000000000000000001F
:101DC4004C1C00080000000000000000000000009F
:101DD40000000000000000000000000000000000FF
:101DE40000000000000000000000000000000000EF
:101DF40000000000000000000000000000000000DF
:0C1E040010010020AD0100088901000859
:0400000508000000EF
:00000001FF
