:020000040800F2
:1000000000000220CD0600081307000815070008AD
:1000100017070008190700081B0700080000000068
:100020000000000000000000000000001D070008A4
:100030001F07000800000000210700082307000830
:1000400027070008290700082B0700082D070008CC
:100050002F0700083107000833070008350700089C
:1000600037070008390700083B0700083D0700086C
:100070003F0700084107000843070008450700083C
:1000800047070008490700084B0700084D0700080C
:100090004F070008510700085307000855070008DC
:1000A00057070008590700085B0700085D070008AC
:1000B0005F0700086107000863070008650700087C
:1000C00067070008690700086B0700086D0700084C
:1000D0006F0700087107000873070008750700081C
:1000E00077070008790700087B0700087D070008EC
:1000F0007F070008810700088307000885070008BC
:1001000087070008890700088B0700088D0700088B
:100110008F0700089107000893070008950700085B
:1001200097070008990700089B0700089D0700082B
:100130009F070008A1070008A3070008A5070008FB
:10014000A7070008A9070008AB070008AD070008CB
:10015000AF070008B1070008B3070008B50700089B
:10016000B7070008B9070008BB070008BD0700086B
:10017000BF070008C1070008C3070008C50700083B
:10018000C7070008C907000810B5054C237833B924
:10019000044B13B10448AFF300800123237010BD5A
:1001A00068000020000000007C09000808B5064B2C
:1001B0001BB106480649AFF300800648036813B137
:1001C000054B03B1984708BD000000007C090008FA
:1001D0006C0000206800002000000000154B002B80
:1001E00008BF134B9D46A3F5803A00218B460F466E
:1001F0001348144A121A00F0A7FB0F4B002B00D033
:1002000098470E4B002B00D0984700200021040097
:100210000D000D48002802D00C48AFF3008000F01C
:100220006DFB2000290000F013FA00F053FB00BF23
:100230000000080000000220000000000000000094
:100240006800002084000020000000000000000082
:1002500000222DE9F00113460126032704E00133B3
:10026000102B02F102022CD00D6806FA03F425408F
:10027000A542F4D1D0F800C007FA02F4E44304EA3E
:100280000C0CC0F800C091F804C0D0F800800CFA43
:1002900002FC4CEA080CC0F800C091F804C00CF154
:1002A000FF3CBCF1010F0FD9C5682C40C460CC796C
:1002B000C568944001332C43102BC46002F1020244
:1002C000D2D1BDE8F0017047D0F808C004EA0C0CA8
:1002D000C0F808C091F805C0D0F808800CFA02FCFC
:1002E0004CEA080CC0F808C0D0F804C02CEA050598
:1002F000456091F806C045680CFA03FC1FFA8CFCB7
:100300004CEA05054560CFE7036919420CBF0020A0
:1003100001207047018370474183704710B4CB08B8
:1003200000EB830001F00701046A89000F238B4072
:1003300024EA03030362036A8A40134303625DF8FD
:10034000044B7047044B1A6B19B922EA000018637A
:10035000704710431863704700380240044B5A6CD2
:1003600019B922EA00005864704710435864704776
:1003700000380240254A0388904210B49BB212D044
:1003800002F5806290420ED0B0F1804F0BD0A2F502
:100390008032904207D002F58062904203D002F58D
:1003A0008062904203D14A8823F070031343184AB5
:1003B000904220D002F5806290421CD00C8923F438
:1003C00040739BB2234303804B68C36202F56C42C7
:1003D0000B880385904207D00E4B984204D001232E
:1003E00083825DF8044B70478B7A038601238382F6
:1003F0005DF8044B704703804B68C3620B8803852C
:10040000012383825DF8044B704700BF0000014068
:100410000010004000040140038829B923F0800344
:100420001B041B0C038070479BB243F080030380C6
:10043000704700BF038829B923F001031B041B0C7C
:10044000038070479BB243F001030380704700BFF5
:10045000038C23F480731B041B0C0384028CB1F8FF
:100460000CC0F0B422F400728488838B1A4D4F883C
:100470000E881204120C23F0730342EA0C221B04B0
:1004800042EA07221B0CA84292B2A4B243EA060336
:100490000AD005F58065A84206D0848083838B68E6
:1004A000C363F0BC02847047CD89B1F810C08F8857
:1004B0004E8A22F4006292B242EA052224F44054A9
:1004C0004FF6FF35154044EA0C1445EA072244EA8A
:1004D000061492B2A4B2E0E70000014000230380BA
:1004E0004380838083608381C3810382438270471A
:1004F000838B23F008031B041B0C19438183704773
:10050000B0F8443021B9C3F30E03A0F8443070476B
:100510006FEA43436FEA53439BB2A0F844307047FD
:1005200070B5154C86B0002302220125204601A992
:100530007026ADF810200393ADF80830ADF81230F6
:10054000ADF81430ADF81630ADF80460ADF80650D3
:10055000FFF77EFF20460821FFF7CAFF01A8FFF73B
:10056000BDFF20462946FFF7CBFF20462946FFF76F
:1005700053FF06B070BD00BF0000014010B5012060
:100580000D4C84B00146FFF7E9FE002340F61F52F0
:10059000204601A9ADF80430ADF80630ADF80C30B6
:1005A0008DF80E300292FFF7E5FE20460121FFF79D
:1005B00041FF04B010BD00BF0000014030B50F4C3A
:1005C00083B010200121FFF7BDFE20460D2101223E
:1005D000FFF7A4FE4FF40055002320460322022417
:1005E000694600958DF806308DF807308DF8044087
:1005F0008DF80520FFF72CFE03B030BD001002403F
:1006000010B5042082B00121FFF79CFE10210023C9
:1006100003220091012407488DF8063069468DF8C1
:1006200007308DF804408DF80520FFF711FE02B069
:1006300010BD00BF0008024008B5FFF7BFFFFFF77D
:10064000DFFFFFF79BFFBDE80840FFF769BF00BF72
:1006500030B583B0FFF7F0FF01200146FFF772FECF
:10066000012100230322009114488DF806306946C9
:100670008DF804308DF807308DF80520FFF7E8FD80
:100680000F4D01210F48FFF73FFE044610210E4891
:100690004CB1FFF73FFE0C482021FFF73DFE40F62E
:1006A000B833EB63EDE708481021FFF735FE064845
:1006B0002021FFF731FEEC63E3E700BF00040240B6
:1006C0000000014000000240000802400649074ABD
:1006D000074B9A42BEBF51F8040B42F8040BF8E7EF
:1006E00004488047044800478809000800000020AB
:1006F00068000020D5070008DD0100083349344AAE
:10070000002301E041F8043B9142FBD3FFF7A0FF37
:10071000FEE7FEE7FEE7FEE7FEE7FEE7FEE7FEE7B1
:10072000FEE7FEE7FEE7FEE7FEE7FEE7FEE7FEE7A1
:10073000FEE7FEE7FEE7FEE7FEE7FEE7FEE7FEE791
:10074000FEE7FEE7FEE7FEE7FEE7FEE7FEE7FEE781
:10075000FEE7FEE7FEE7FEE7FEE7FEE7FEE7FEE771
:10076000FEE7FEE7FEE7FEE7FEE7FEE7FEE7FEE761
:10077000FEE7FEE7FEE7FEE7FEE7FEE7FEE7FEE751
:10078000FEE7FEE7FEE7FEE7FEE7FEE7FEE7FEE741
:10079000FEE7FEE7FEE7FEE7FEE7FEE7FEE7FEE731
:1007A000FEE7FEE7FEE7FEE7FEE7FEE7FEE7FEE721
:1007B000FEE7FEE7FEE7FEE7FEE7FEE7FEE7FEE711
:1007C000FEE7FEE7FEE7FEE7FEE700006800002028
:1007D00084000020394A3A4BD2F88810394841F455
:1007E0007001C2F888101968002241F001011960F7
:1007F0009A60196821F0847121F480311960586081
:10080000196882B021F480211960DA6000920192A7
:100810001A6842F480321A601A4603E0009BB3F56E
:10082000C06F09D0136803F400330193009B0133B8
:100830000093019B002BF1D0214B1B6813F4003374
:1008400018BF01230193019B012B05D01B4B4FF0D7
:1008500000629A6002B07047194B1B4A186C1B4922
:1008600040F080501864106840F4804010609A682E
:100870009A609A6842F400429A609A6842F4A052E0
:100880009A6059601A6842F080721A6019460B68C3
:100890000B4A9B01FBD50E4B40F205711960936822
:1008A00023F003039360936843F00203936093681B
:1008B00003F00C03082BFAD1C8E700BF00ED00E0FD
:1008C00000380240103000240070004019544007E6
:1008D000003C024008B5074B044613B10021AFF3BA
:1008E0000080054B1868836A03B19847204600F0E2
:1008F00033F800BF000000007809000870B50E4B07
:100900000E4DED1AAD1000241E46AC4204D056F830
:10091000242090470134F8E700F020F8084D094BF7
:10092000ED1AAD1000241E46AC4204D056F8242027
:1009300090470134F8E770BD60000020600000209F
:10094000640000206000002002440346934202D06D
:1009500003F8011BFAE77047FEE70000F8B500BF97
:10096000F8BC08BC9E467047F8B500BFF8BC08BC90
:100970009E46704743000000000000200000000079
:080980005CF8FF7F010000009C
:10098800000000000000000000000000000000005F
:10099800000000000000000000000000000000004F
:1009A80074090008000000000000000000000000BA
:1009B800000000000000000000000000000000002F
:1009C800000000000000000000000000000000001F
:1009D800000000000000000000000000000000000F
:0809E800AD01000889010008BF
:0400000508000000EF
:00000001FF
